:100000000C9402010C941F010C941F010C941F010D
:100010000C941F010C944B040C941F010C941F01B1
:100020000C941F010C941F010C941F010C941F01D0
:100030000C941F010C941F010C941F010C941F01C0
:100040000C941F010C941F010C941F010C941F01B0
:100050000C941F012D0146015F0178019001900170
:100060009001900190019001900190019001900108
:1000700090019001900190019001900190019001F8
:1000800090019001900190019001900190019001E8
:10009000900190012D0146015F0178019D01B6019B
:1000A000CF01E8010002000200020002000200028B
:1000B0000002000200020002000200020002000230
:1000C0000002000200020002000200020002000220
:1000D0000002000200020002000200029D01B601BF
:1000E000CF01E8010D022102350249025D025D02E5
:1000F0005D025D025D025D025D025D025D025D0208
:100100005D025D025D025D025D025D025D025D02F7
:100110005D025D025D025D025D025D025D025D02E7
:100120005D025D020D022102350249026A026C0283
:100130006E0270027102710271027102710271022B
:100140007102710271027102710271027102710217
:100150007102710271027102710271027102710207
:100160007102710271027102710271026A026C0203
:100170006E0270027D027F02810283028402840289
:10018000840284028402840284028402840284023F
:10019000840284028402840284028402840284022F
:1001A000840284028402840284028402840284021F
:1001B000840284027D027F028102830292029902FC
:1001C000A002A702AD02AD02AD02AD02AD02AD02CA
:1001D000AD02AD02AD02AD02AD02AD02AD02AD02A7
:1001E000AD02AD02AD02AD02AD02AD02AD02AD0297
:1001F000AD02AD02AD02AD02AD02AD0292029902B6
:10020000A002A70211241FBECFE5D8E0DEBFCDBFFC
:1002100010E0A0E6B0E0E4E3FEE002C005900D923D
:10022000A23BB107D9F720E0A2EBB0E001C01D92DC
:10023000A93BB207E1F70E945A050C9418070C94E9
:10024000000090E0FC01E154F109E432F10508F00E
:1002500067C0E65DFF4F0C941207413059F42AB392
:1002600081E090E002C0880F991F6A95E2F7822B27
:100270008ABB08952AB381E090E002C0880F991FDD
:100280006A95E2F7809582238ABB0895413059F43C
:1002900027B381E090E002C0880F991F6A95E2F7CA
:1002A000822B87BB089527B381E090E002C0880FBE
:1002B000991F6A95E2F78095822387BB08954130A4
:1002C00059F424B381E090E002C0880F991F6A9529
:1002D000E2F7822B84BB089524B381E090E002C052
:1002E000880F991F6A95E2F78095822384BB089551
:1002F000413059F421B381E090E002C0880F991F8A
:100300006A95E2F7822B81BB089521B381E090E0EA
:1003100002C0880F991F6A95E2F78095822381BBFE
:10032000089590E0FC01E154F109E432F10508F090
:1003300067C0E25BFF4F0C941207413059F42BB3B6
:1003400081E090E002C0880F991F6A95E2F7822B46
:100350008BBB08952BB381E090E002C0880F991FFA
:100360006A95E2F7809582238BBB0895413059F45A
:1003700028B381E090E002C0880F991F6A95E2F7E8
:10038000822B88BB089528B381E090E002C0880FDB
:10039000991F6A95E2F78095822388BB08954130C2
:1003A00059F425B381E090E002C0880F991F6A9547
:1003B000E2F7822B85BB089525B381E090E002C06F
:1003C000880F991F6A95E2F78095822385BB08956F
:1003D000413059F422B381E090E002C0880F991FA8
:1003E0006A95E2F7822B82BB089522B381E090E008
:1003F00002C0880F991F6A95E2F78095822382BB1D
:10040000089590E0FC01E154F109E432F10508F0AF
:1004100054C0EE58FF4F0C94120749B381E090E0AE
:100420009C01062E02C0220F331F0A94E2F7842F8C
:1004300090E08223932302C0959587956A95E2F711
:10044000089546B381E090E09C01062E02C0220F81
:10045000331F0A94E2F7842F90E08223932302C093
:10046000959587956A95E2F7089543B381E090E00A
:100470009C01062E02C0220F331F0A94E2F7842F3C
:1004800090E08223932302C0959587956A95E2F7C1
:10049000089540B381E090E09C01062E02C0220F37
:1004A000331F0A94E2F7842F90E08223932302C043
:1004B000959587956A95E2F7089580E0089590E014
:1004C000FC01E154F109E432F10558F4EA56FF4F1A
:1004D0000C9412076ABB089567BB089564BB089526
:1004E00061BB089590E0FC01E154F109E432F105AB
:1004F00058F4E654FF4F0C9412076BBB089568BB89
:10050000089565BB089562BB08956295607F90E091
:10051000FC01E154F109E432F105F8F4E252FF4F35
:100520000C9412078BB38F708BBB8BB3682B6BBB98
:10053000089588B38F7088BB88B3682B68BB089513
:1005400085B38F7085BB85B3682B65BB089582B377
:100550008F7082BB82B3682B62BB089541E060E07C
:1005600084E40E94210141E061E084E40E942101D1
:1005700041E062E084E40E94210141E063E084E420
:100580000E94210140E064E084E40E94210140E0F7
:1005900065E084E40E94210140E066E084E40E947A
:1005A000210140E067E084E40E9421010895EF9278
:1005B000FF920F931F93CF93DF93CDB7DEB7609772
:1005C0000FB6F894DEBF0FBECDBF80E1E0E6F0E0ED
:1005D000DE01119601900D928A95E1F7F12CEE243F
:1005E000EA9439C041E060E084E40E94910141E076
:1005F00061E084E40E94910141E062E084E40E94B1
:10060000910141E063E084E40E94910140E06F2D9C
:1006100084E40E94910110E019C064E0610F84E459
:100620000E940102082F811110C0EF2DF0E0EE0FA3
:10063000FF1FEE0FFF1F81E090E08C0F9D1FE80F62
:10064000F91FE10FF11DE08003C01F5F143028F394
:10065000002321F0F39493E09F1520F68E2D6096F1
:100660000FB6F894DEBF0FBECDBFDF91CF911F91C3
:100670000F91FF90EF90089541E050E062E070E04C
:1006800081E490E00E9491018FE99FE00197F1F7EA
:1006900000C0000040E050E062E070E081E490E0E3
:1006A0000E9491018FE99FE00197F1F700C00000DF
:1006B0000895CF93C82F40E050E060E070E081E4FF
:1006C00090E00E9491016C2F62956F7070E081E460
:1006D00090E00E9485020E943C036C2F70E081E450
:1006E00090E00E9485020E943C038FEC97E0019706
:1006F000F1F700C00000CF9108952FEF81EE94E054
:10070000215080409040E1F700C0000041E050E0FF
:1007100064E070E081E490E00E94210141E050E05B
:1007200065E070E081E490E00E94210141E050E04A
:1007300066E070E081E490E00E94210141E050E039
:1007400067E070E081E490E00E94210141E050E028
:1007500062E070E081E490E00E94210141E050E01D
:1007600061E070E081E490E00E94210141E050E00E
:1007700060E070E081E490E00E94210140E050E000
:1007800061E070E081E490E00E94910182E00E94CB
:1007900059038FE19EE40197F1F700C0000088E261
:1007A0000E9459038FEC97E00197F1F700C0000019
:1007B00081E00E9459038FE19EE40197F1F700C0A8
:1007C00000008CE00E9459038FEC97E00197F1F74D
:1007D00000C0000086E00E9459038FEC97E001976B
:1007E000F1F700C000000895CF93C82F41E050E01A
:1007F00060E070E081E490E00E9491016C2F6295CE
:100800006F7070E081E490E00E9485020E943C03DA
:100810006C2F70E081E490E00E9485020E943C030E
:10082000CF910895CF93DF93EC0103C00E94F403AE
:10083000219688818111FACFDF91CF91089581E0CF
:100840000E9459038FE19EE40197F1F700C0000078
:1008500008959FEF980F923070F4613170F4662321
:1008600071F0813019F48FE7860F0CC0823049F4A3
:100870008FEB860F07C080E805C080E803C080E8E2
:1008800001C080E00E9459038FEC97E00197F1F7D7
:1008900000C0000008951F920F920FB60F9211240E
:1008A0008F938091B4008F5F8093B4008F910F90ED
:1008B0000FBE0F901F901895CF9385B38E7F85BB89
:1008C00085B3826085BB85B3846085BB85B3886052
:1008D00085BB85B3806185BB85B3806285BB809114
:1008E000B200CDEC8C9F812D11248695869586953E
:1008F0000E94D5068FE097E20197F1F700C0000053
:1009000085B3816085BB85B38D7F85BB85B38460EE
:1009100085BB85B3886085BB85B3806185BB85B3A6
:10092000806285BB8091B2008C9F912D1124969599
:1009300096959695990F292F220F220F920F891BBA
:100940000E94D5068FE097E20197F1F700C0000002
:1009500085B3816085BB85B3826085BB85B38B7FA2
:1009600085BB85B3886085BB85B3806185BB85B356
:10097000806285BB8091B3008C9F812D1124869568
:10098000869586950E94D5068FE097E20197F1F74C
:1009900000C0000085B3816085BB85B3826085BBE4
:1009A00085B3846085BB85B3877F85BB85B3806154
:1009B00085BB85B3806285BB8091B3008C9F912DF0
:1009C0001124969596959695990F292F220F220F0F
:1009D000920F891B0E94D5068FE097E20197F1F7ED
:1009E00000C0000085B3816085BB85B3826085BB94
:1009F00085B3846085BB85B3886085BB85B38F7EF6
:100A000085BB85B3806285BB8091B4008C9F812DAE
:100A100011248695869586950E94D5068FE097E2EB
:100A20000197F1F700C0000085B3816085BB85B3F5
:100A3000826085BB85B3846085BB85B3886085BBD8
:100A400085B3806185BB85B38F7D85BB8091B40004
:100A50008C9FC12D1124C695C695C695CC0F9C2F91
:100A6000990F990FC90F8C1B0E94D5068FE097E252
:100A70000197F1F700C000008091B4008C3339F485
:100A80001092B4008091B3008F5F8093B300809187
:100A9000B3008C3339F41092B3008091B2008F5FB1
:100AA0008093B2008091B200883111F41092B200AC
:100AB000CF9108950E947D030E94AE020E94D0064D
:100AC0000E94FB0684B3816084BB84B3826084BBD4
:100AD00084B3846084BB84B3886084BB84B3806146
:100AE00084BB84B3806284BB8AE790E00E941204D6
:100AF00061E082E00E94290485E890E00E941204EF
:100B00000E94D7028093B700813409F046C10E9449
:100B10001F0485E990E00E94120467E081E00E94D2
:100B200029040E94D7028093B70090ED980F9A3065
:100B300000F59091B800911113C08093B6000E9407
:100B4000F4038091B8008F5F8093B8002FEF81EE9F
:100B500094E0215080409040E1F700C0000009C0BF
:100B60008093B5000E94F4038091B8008F5F80935A
:100B7000B8000E945C048091B800823090F22FEFA0
:100B800081EE94E0215080409040E1F700C00000E9
:100B90008091B60090E0C097AC01440F551F9C01B6
:100BA000220F331F220F331F220F331F240F351F35
:100BB0006091B500462F50E040535109240F351F76
:100BC000283131054CF4880F982F990F990F890F10
:100BD000680F60536093B20080E38093B500809308
:100BE000B6001092B8000E941F048EE990E00E94A7
:100BF000120468E081E00E9429040E94D7028093D9
:100C0000B70090ED980F9A3000F59091B8009111CF
:100C100013C08093B6000E94F4038091B8008F5FE8
:100C20008093B8002FEF81EE94E0215080409040F7
:100C3000E1F700C0000009C08093B5000E94F403F2
:100C40008091B8008F5F8093B8000E945C0480910F
:100C5000B800823090F22FEF81EE94E02150804076
:100C60009040E1F700C000008091B60090E0C0978E
:100C7000AC01440F551F9C01220F331F220F331F5D
:100C8000220F331F240F351F2C3331055CF4880FDE
:100C9000982F990F990F890F9091B500890F805364
:100CA0008093B30080E38093B5008093B6001092E8
:100CB000B8000E941F0488EA90E00E94120468E0D5
:100CC00081E00E9429040E94D7028093B70090ED32
:100CD000980F9A3000F59091B800911113C080934D
:100CE000B6000E94F4038091B8008F5F8093B80033
:100CF0002FEF81EE94E0215080409040E1F700C05A
:100D0000000009C08093B5000E94F4038091B800F0
:100D10008F5F8093B8000E945C048091B80082309D
:100D200090F22FEF81EE94E0215080409040E1F767
:100D300000C000008091B60090E0C097AC01440F65
:100D4000551F9C01220F331F220F331F220F331F09
:100D5000240F351F2C3331055CF4880F982F990F21
:100D6000990F890F9091B500890F80538093B4003B
:100D700080E38093B5008093B6001092B8000E9483
:100D80001F048AE790E00E94120461E082E00E9462
:100D9000290485E890E00E9412040E945C04B0CE11
:100DA0006FEF82E40E945F020895CF93DF93CDB787
:100DB000DEB72A970FB6F894DEBF0FBECDBF9AE01C
:100DC000E0E7F0E0DE01119601900D929A95E1F7CF
:100DD000E1E0F0E0EC0FFD1FE80FF11D608182E41F
:100DE0000E9472022A960FB6F894DEBF0FBECDBFE6
:100DF000DF91CF91089585B58F7B85BD85B5877FC0
:100E000085BD82B5886082BD85B5816085BD85B5AB
:100E10008D7F85BD85B5846085BD789489B78064F4
:100E200089BF0895EE0FFF1F0590F491E02D0994FE
:040E3000F894FFCF64
:100E34003738392F3435362A3132332D41303D2B72
:100E44003F065B4F666D7D477F6F20202070726583
:100E54007373204100202020746F20736574206315
:100E64006C6F636B0020486F75723D2D2D004D69CA
:100E74006E7574653D2D2D005365636F6E643D2D55
:020E84002D003F
:00000001FF
